{
  "contractName": "TheGame",
  "abi": [
    {
      "inputs": [],
      "stateMutability": "nonpayable",
      "type": "constructor"
    },
    {
      "anonymous": false,
      "inputs": [
        {
          "indexed": true,
          "internalType": "address",
          "name": "owner",
          "type": "address"
        },
        {
          "indexed": true,
          "internalType": "address",
          "name": "approved",
          "type": "address"
        },
        {
          "indexed": true,
          "internalType": "uint256",
          "name": "tokenId",
          "type": "uint256"
        }
      ],
      "name": "Approval",
      "type": "event"
    },
    {
      "anonymous": false,
      "inputs": [
        {
          "indexed": true,
          "internalType": "address",
          "name": "owner",
          "type": "address"
        },
        {
          "indexed": true,
          "internalType": "address",
          "name": "operator",
          "type": "address"
        },
        {
          "indexed": false,
          "internalType": "bool",
          "name": "approved",
          "type": "bool"
        }
      ],
      "name": "ApprovalForAll",
      "type": "event"
    },
    {
      "anonymous": false,
      "inputs": [
        {
          "indexed": true,
          "internalType": "address",
          "name": "previousOwner",
          "type": "address"
        },
        {
          "indexed": true,
          "internalType": "address",
          "name": "newOwner",
          "type": "address"
        }
      ],
      "name": "OwnershipTransferred",
      "type": "event"
    },
    {
      "anonymous": false,
      "inputs": [
        {
          "indexed": true,
          "internalType": "address",
          "name": "from",
          "type": "address"
        },
        {
          "indexed": true,
          "internalType": "address",
          "name": "to",
          "type": "address"
        },
        {
          "indexed": true,
          "internalType": "uint256",
          "name": "tokenId",
          "type": "uint256"
        }
      ],
      "name": "Transfer",
      "type": "event"
    },
    {
      "inputs": [
        {
          "internalType": "address",
          "name": "to",
          "type": "address"
        },
        {
          "internalType": "uint256",
          "name": "tokenId",
          "type": "uint256"
        }
      ],
      "name": "approve",
      "outputs": [],
      "stateMutability": "nonpayable",
      "type": "function"
    },
    {
      "inputs": [
        {
          "internalType": "address",
          "name": "owner",
          "type": "address"
        }
      ],
      "name": "balanceOf",
      "outputs": [
        {
          "internalType": "uint256",
          "name": "",
          "type": "uint256"
        }
      ],
      "stateMutability": "view",
      "type": "function",
      "constant": true
    },
    {
      "inputs": [],
      "name": "baseURI",
      "outputs": [
        {
          "internalType": "string",
          "name": "",
          "type": "string"
        }
      ],
      "stateMutability": "view",
      "type": "function",
      "constant": true
    },
    {
      "inputs": [],
      "name": "gameStarts",
      "outputs": [
        {
          "internalType": "bool",
          "name": "",
          "type": "bool"
        }
      ],
      "stateMutability": "view",
      "type": "function",
      "constant": true
    },
    {
      "inputs": [
        {
          "internalType": "uint256",
          "name": "tokenId",
          "type": "uint256"
        }
      ],
      "name": "getApproved",
      "outputs": [
        {
          "internalType": "address",
          "name": "",
          "type": "address"
        }
      ],
      "stateMutability": "view",
      "type": "function",
      "constant": true
    },
    {
      "inputs": [
        {
          "internalType": "address",
          "name": "owner",
          "type": "address"
        },
        {
          "internalType": "address",
          "name": "operator",
          "type": "address"
        }
      ],
      "name": "isApprovedForAll",
      "outputs": [
        {
          "internalType": "bool",
          "name": "",
          "type": "bool"
        }
      ],
      "stateMutability": "view",
      "type": "function",
      "constant": true
    },
    {
      "inputs": [],
      "name": "lossBasePrice",
      "outputs": [
        {
          "internalType": "uint256",
          "name": "",
          "type": "uint256"
        }
      ],
      "stateMutability": "view",
      "type": "function",
      "constant": true
    },
    {
      "inputs": [],
      "name": "maxSupply",
      "outputs": [
        {
          "internalType": "uint256",
          "name": "",
          "type": "uint256"
        }
      ],
      "stateMutability": "view",
      "type": "function",
      "constant": true
    },
    {
      "inputs": [],
      "name": "mintedLosses",
      "outputs": [
        {
          "internalType": "uint256",
          "name": "",
          "type": "uint256"
        }
      ],
      "stateMutability": "view",
      "type": "function",
      "constant": true
    },
    {
      "inputs": [],
      "name": "name",
      "outputs": [
        {
          "internalType": "string",
          "name": "",
          "type": "string"
        }
      ],
      "stateMutability": "view",
      "type": "function",
      "constant": true
    },
    {
      "inputs": [],
      "name": "owner",
      "outputs": [
        {
          "internalType": "address",
          "name": "",
          "type": "address"
        }
      ],
      "stateMutability": "view",
      "type": "function",
      "constant": true
    },
    {
      "inputs": [
        {
          "internalType": "uint256",
          "name": "tokenId",
          "type": "uint256"
        }
      ],
      "name": "ownerOf",
      "outputs": [
        {
          "internalType": "address",
          "name": "",
          "type": "address"
        }
      ],
      "stateMutability": "view",
      "type": "function",
      "constant": true
    },
    {
      "inputs": [],
      "name": "renounceOwnership",
      "outputs": [],
      "stateMutability": "nonpayable",
      "type": "function"
    },
    {
      "inputs": [
        {
          "internalType": "address",
          "name": "from",
          "type": "address"
        },
        {
          "internalType": "address",
          "name": "to",
          "type": "address"
        },
        {
          "internalType": "uint256",
          "name": "tokenId",
          "type": "uint256"
        }
      ],
      "name": "safeTransferFrom",
      "outputs": [],
      "stateMutability": "nonpayable",
      "type": "function"
    },
    {
      "inputs": [
        {
          "internalType": "address",
          "name": "from",
          "type": "address"
        },
        {
          "internalType": "address",
          "name": "to",
          "type": "address"
        },
        {
          "internalType": "uint256",
          "name": "tokenId",
          "type": "uint256"
        },
        {
          "internalType": "bytes",
          "name": "_data",
          "type": "bytes"
        }
      ],
      "name": "safeTransferFrom",
      "outputs": [],
      "stateMutability": "nonpayable",
      "type": "function"
    },
    {
      "inputs": [
        {
          "internalType": "address",
          "name": "operator",
          "type": "address"
        },
        {
          "internalType": "bool",
          "name": "approved",
          "type": "bool"
        }
      ],
      "name": "setApprovalForAll",
      "outputs": [],
      "stateMutability": "nonpayable",
      "type": "function"
    },
    {
      "inputs": [
        {
          "internalType": "bytes4",
          "name": "interfaceId",
          "type": "bytes4"
        }
      ],
      "name": "supportsInterface",
      "outputs": [
        {
          "internalType": "bool",
          "name": "",
          "type": "bool"
        }
      ],
      "stateMutability": "view",
      "type": "function",
      "constant": true
    },
    {
      "inputs": [],
      "name": "symbol",
      "outputs": [
        {
          "internalType": "string",
          "name": "",
          "type": "string"
        }
      ],
      "stateMutability": "view",
      "type": "function",
      "constant": true
    },
    {
      "inputs": [
        {
          "internalType": "address",
          "name": "from",
          "type": "address"
        },
        {
          "internalType": "address",
          "name": "to",
          "type": "address"
        },
        {
          "internalType": "uint256",
          "name": "tokenId",
          "type": "uint256"
        }
      ],
      "name": "transferFrom",
      "outputs": [],
      "stateMutability": "nonpayable",
      "type": "function"
    },
    {
      "inputs": [
        {
          "internalType": "address",
          "name": "newOwner",
          "type": "address"
        }
      ],
      "name": "transferOwnership",
      "outputs": [],
      "stateMutability": "nonpayable",
      "type": "function"
    },
    {
      "inputs": [],
      "name": "getMaxSupply",
      "outputs": [
        {
          "internalType": "uint256",
          "name": "",
          "type": "uint256"
        }
      ],
      "stateMutability": "view",
      "type": "function",
      "constant": true
    },
    {
      "inputs": [],
      "name": "getMintedLosses",
      "outputs": [
        {
          "internalType": "uint256",
          "name": "",
          "type": "uint256"
        }
      ],
      "stateMutability": "view",
      "type": "function",
      "constant": true
    },
    {
      "inputs": [],
      "name": "getLossBasePrice",
      "outputs": [
        {
          "internalType": "uint256",
          "name": "",
          "type": "uint256"
        }
      ],
      "stateMutability": "view",
      "type": "function",
      "constant": true
    },
    {
      "inputs": [],
      "name": "firstLoser",
      "outputs": [],
      "stateMutability": "payable",
      "type": "function",
      "payable": true
    },
    {
      "inputs": [
        {
          "internalType": "address",
          "name": "to",
          "type": "address"
        },
        {
          "internalType": "uint256",
          "name": "amountOfLosses",
          "type": "uint256"
        }
      ],
      "name": "mintLosses",
      "outputs": [],
      "stateMutability": "payable",
      "type": "function",
      "payable": true
    },
    {
      "inputs": [
        {
          "internalType": "uint256",
          "name": "tokenId",
          "type": "uint256"
        }
      ],
      "name": "tokenURI",
      "outputs": [
        {
          "internalType": "string",
          "name": "",
          "type": "string"
        }
      ],
      "stateMutability": "view",
      "type": "function",
      "constant": true
    },
    {
      "inputs": [
        {
          "internalType": "address",
          "name": "ad",
          "type": "address"
        }
      ],
      "name": "lossFinder",
      "outputs": [
        {
          "internalType": "uint256",
          "name": "",
          "type": "uint256"
        }
      ],
      "stateMutability": "view",
      "type": "function",
      "constant": true
    },
    {
      "inputs": [],
      "name": "withdraw",
      "outputs": [],
      "stateMutability": "payable",
      "type": "function",
      "payable": true
    },
    {
      "inputs": [],
      "name": "beginTheGame",
      "outputs": [],
      "stateMutability": "nonpayable",
      "type": "function"
    }
  ],
  "bytecode": "0x60806040526000600760146101000a81548160ff0219169083151502179055507fffffffffffffffffffffffffffffffffffffffffffffffffffffffffffffffff600855600060095560405180608001604052806053815260200162003e8360539139600a90805190602001906200007992919062000226565b50655af3107a4000600b553480156200009157600080fd5b506040518060400160405280600781526020017f54686547616d65000000000000000000000000000000000000000000000000008152506040518060400160405280600481526020017f445441490000000000000000000000000000000000000000000000000000000081525081600090805190602001906200011692919062000226565b5080600190805190602001906200012f92919062000226565b50505062000152620001466200015860201b60201c565b6200016060201b60201c565b6200033b565b600033905090565b6000600760009054906101000a900473ffffffffffffffffffffffffffffffffffffffff16905081600760006101000a81548173ffffffffffffffffffffffffffffffffffffffff021916908373ffffffffffffffffffffffffffffffffffffffff1602179055508173ffffffffffffffffffffffffffffffffffffffff168173ffffffffffffffffffffffffffffffffffffffff167f8be0079c531659141344cd1fd0a4f28419497f9722a3daafe3b4186f6b6457e060405160405180910390a35050565b828054620002349062000305565b90600052602060002090601f016020900481019282620002585760008555620002a4565b82601f106200027357805160ff1916838001178555620002a4565b82800160010185558215620002a4579182015b82811115620002a357825182559160200191906001019062000286565b5b509050620002b39190620002b7565b5090565b5b80821115620002d2576000816000905550600101620002b8565b5090565b7f4e487b7100000000000000000000000000000000000000000000000000000000600052602260045260246000fd5b600060028204905060018216806200031e57607f821691505b60208210811415620003355762000334620002d6565b5b50919050565b613b38806200034b6000396000f3fe6080604052600436106101c25760003560e01c806370a08231116100f7578063ac6ea97d11610095578063e985e9c511610064578063e985e9c5146105d1578063ef50c1291461060e578063f2fde38b1461064b578063fb36aa8314610674576101c2565b8063ac6ea97d14610524578063b88d4fde14610540578063c87b56dd14610569578063d5abeb01146105a6576101c2565b8063927f5cc5116100d1578063927f5cc51461049b57806395d89b41146104a5578063a22cb465146104d0578063a3ac6e14146104f9576101c2565b806370a082311461041c578063715018a6146104595780638da5cb5b14610470576101c2565b80633d56e3b311610164578063622b209a1161013e578063622b209a146103725780636352211e1461039d57806366eabfd4146103da5780636c0360eb146103f1576101c2565b80633d56e3b3146102f357806342842e0e1461031e5780634c0f38c214610347576101c2565b8063095ea7b3116101a0578063095ea7b31461026c578063224411b11461029557806323b872dd146102c05780633ccfd60b146102e9576101c2565b806301ffc9a7146101c757806306fdde0314610204578063081812fc1461022f575b600080fd5b3480156101d357600080fd5b506101ee60048036038101906101e9919061261d565b61069f565b6040516101fb9190612665565b60405180910390f35b34801561021057600080fd5b50610219610781565b6040516102269190612719565b60405180910390f35b34801561023b57600080fd5b5061025660048036038101906102519190612771565b610813565b60405161026391906127df565b60405180910390f35b34801561027857600080fd5b50610293600480360381019061028e9190612826565b610898565b005b3480156102a157600080fd5b506102aa6109b0565b6040516102b79190612875565b60405180910390f35b3480156102cc57600080fd5b506102e760048036038101906102e29190612890565b6109ba565b005b6102f1610a1a565b005b3480156102ff57600080fd5b50610308610ae5565b6040516103159190612875565b60405180910390f35b34801561032a57600080fd5b5061034560048036038101906103409190612890565b610aeb565b005b34801561035357600080fd5b5061035c610b0b565b6040516103699190612875565b60405180910390f35b34801561037e57600080fd5b50610387610b15565b6040516103949190612875565b60405180910390f35b3480156103a957600080fd5b506103c460048036038101906103bf9190612771565b610b1b565b6040516103d191906127df565b60405180910390f35b3480156103e657600080fd5b506103ef610bcd565b005b3480156103fd57600080fd5b50610406610c75565b6040516104139190612719565b60405180910390f35b34801561042857600080fd5b50610443600480360381019061043e91906128e3565b610d03565b6040516104509190612875565b60405180910390f35b34801561046557600080fd5b5061046e610dbb565b005b34801561047c57600080fd5b50610485610e43565b60405161049291906127df565b60405180910390f35b6104a3610e6d565b005b3480156104b157600080fd5b506104ba61101f565b6040516104c79190612719565b60405180910390f35b3480156104dc57600080fd5b506104f760048036038101906104f2919061293c565b6110b1565b005b34801561050557600080fd5b5061050e6110c7565b60405161051b9190612665565b60405180910390f35b61053e60048036038101906105399190612826565b6110da565b005b34801561054c57600080fd5b5061056760048036038101906105629190612ab1565b61129f565b005b34801561057557600080fd5b50610590600480360381019061058b9190612771565b611301565b60405161059d9190612719565b60405180910390f35b3480156105b257600080fd5b506105bb611313565b6040516105c89190612875565b60405180910390f35b3480156105dd57600080fd5b506105f860048036038101906105f39190612b34565b611319565b6040516106059190612665565b60405180910390f35b34801561061a57600080fd5b50610635600480360381019061063091906128e3565b6113ad565b6040516106429190612875565b60405180910390f35b34801561065757600080fd5b50610672600480360381019061066d91906128e3565b6113f6565b005b34801561068057600080fd5b506106896114ee565b6040516106969190612875565b60405180910390f35b60007f80ac58cd000000000000000000000000000000000000000000000000000000007bffffffffffffffffffffffffffffffffffffffffffffffffffffffff1916827bffffffffffffffffffffffffffffffffffffffffffffffffffffffff1916148061076a57507f5b5e139f000000000000000000000000000000000000000000000000000000007bffffffffffffffffffffffffffffffffffffffffffffffffffffffff1916827bffffffffffffffffffffffffffffffffffffffffffffffffffffffff1916145b8061077a5750610779826114f8565b5b9050919050565b60606000805461079090612ba3565b80601f01602080910402602001604051908101604052809291908181526020018280546107bc90612ba3565b80156108095780601f106107de57610100808354040283529160200191610809565b820191906000526020600020905b8154815290600101906020018083116107ec57829003601f168201915b5050505050905090565b600061081e82611562565b61085d576040517f08c379a000000000000000000000000000000000000000000000000000000000815260040161085490612c47565b60405180910390fd5b6004600083815260200190815260200160002060009054906101000a900473ffffffffffffffffffffffffffffffffffffffff169050919050565b60006108a382610b1b565b90508073ffffffffffffffffffffffffffffffffffffffff168373ffffffffffffffffffffffffffffffffffffffff161415610914576040517f08c379a000000000000000000000000000000000000000000000000000000000815260040161090b90612cd9565b60405180910390fd5b8073ffffffffffffffffffffffffffffffffffffffff166109336115ce565b73ffffffffffffffffffffffffffffffffffffffff16148061096257506109618161095c6115ce565b611319565b5b6109a1576040517f08c379a000000000000000000000000000000000000000000000000000000000815260040161099890612d6b565b60405180910390fd5b6109ab83836115d6565b505050565b6000600b54905090565b6109cb6109c56115ce565b8261168f565b610a0a576040517f08c379a0000000000000000000000000000000000000000000000000000000008152600401610a0190612dfd565b60405180910390fd5b610a1583838361176d565b505050565b610a226115ce565b73ffffffffffffffffffffffffffffffffffffffff16610a40610e43565b73ffffffffffffffffffffffffffffffffffffffff1614610a96576040517f08c379a0000000000000000000000000000000000000000000000000000000008152600401610a8d90612e69565b60405180910390fd5b60004790503373ffffffffffffffffffffffffffffffffffffffff166108fc829081150290604051600060405180830381858888f19350505050158015610ae1573d6000803e3d6000fd5b5050565b600b5481565b610b068383836040518060200160405280600081525061129f565b505050565b6000600854905090565b60095481565b6000806002600084815260200190815260200160002060009054906101000a900473ffffffffffffffffffffffffffffffffffffffff169050600073ffffffffffffffffffffffffffffffffffffffff168173ffffffffffffffffffffffffffffffffffffffff161415610bc4576040517f08c379a0000000000000000000000000000000000000000000000000000000008152600401610bbb90612efb565b60405180910390fd5b80915050919050565b610bd56115ce565b73ffffffffffffffffffffffffffffffffffffffff16610bf3610e43565b73ffffffffffffffffffffffffffffffffffffffff1614610c49576040517f08c379a0000000000000000000000000000000000000000000000000000000008152600401610c4090612e69565b60405180910390fd5b600760149054906101000a900460ff1615600760146101000a81548160ff021916908315150217905550565b600a8054610c8290612ba3565b80601f0160208091040260200160405190810160405280929190818152602001828054610cae90612ba3565b8015610cfb5780601f10610cd057610100808354040283529160200191610cfb565b820191906000526020600020905b815481529060010190602001808311610cde57829003601f168201915b505050505081565b60008073ffffffffffffffffffffffffffffffffffffffff168273ffffffffffffffffffffffffffffffffffffffff161415610d74576040517f08c379a0000000000000000000000000000000000000000000000000000000008152600401610d6b90612f8d565b60405180910390fd5b600360008373ffffffffffffffffffffffffffffffffffffffff1673ffffffffffffffffffffffffffffffffffffffff168152602001908152602001600020549050919050565b610dc36115ce565b73ffffffffffffffffffffffffffffffffffffffff16610de1610e43565b73ffffffffffffffffffffffffffffffffffffffff1614610e37576040517f08c379a0000000000000000000000000000000000000000000000000000000008152600401610e2e90612e69565b60405180910390fd5b610e4160006119c9565b565b6000600760009054906101000a900473ffffffffffffffffffffffffffffffffffffffff16905090565b610e756115ce565b73ffffffffffffffffffffffffffffffffffffffff16610e93610e43565b73ffffffffffffffffffffffffffffffffffffffff1614610ee9576040517f08c379a0000000000000000000000000000000000000000000000000000000008152600401610ee090612e69565b60405180910390fd5b610ef1610bcd565b6000600a90508060ff16600b54610f089190612fdc565b3414610f49576040517f08c379a0000000000000000000000000000000000000000000000000000000008152600401610f4090613082565b60405180910390fd5b60005b8160ff16811015610f7357610f6033611a8f565b8080610f6b906130a2565b915050610f4c565b508060ff16600954610f8591906130eb565b6009819055508060ff16600c60003373ffffffffffffffffffffffffffffffffffffffff1673ffffffffffffffffffffffffffffffffffffffff16815260200190815260200160002054610fd991906130eb565b600c60003373ffffffffffffffffffffffffffffffffffffffff1673ffffffffffffffffffffffffffffffffffffffff1681526020019081526020016000208190555050565b60606001805461102e90612ba3565b80601f016020809104026020016040519081016040528092919081815260200182805461105a90612ba3565b80156110a75780601f1061107c576101008083540402835291602001916110a7565b820191906000526020600020905b81548152906001019060200180831161108a57829003601f168201915b5050505050905090565b6110c36110bc6115ce565b8383611b55565b5050565b600760149054906101000a900460ff1681565b60011515600760149054906101000a900460ff16151514611130576040517f08c379a00000000000000000000000000000000000000000000000000000000081526004016111279061318d565b60405180910390fd5b6008548160095461114191906130eb565b1115611182576040517f08c379a000000000000000000000000000000000000000000000000000000000815260040161117990613245565b60405180910390fd5b80600b546111909190612fdc565b34146111d1576040517f08c379a00000000000000000000000000000000000000000000000000000000081526004016111c8906132d7565b60405180910390fd5b60005b818110156111f8576111e583611a8f565b80806111f0906130a2565b9150506111d4565b508060095461120791906130eb565b60098190555080600c60003373ffffffffffffffffffffffffffffffffffffffff1673ffffffffffffffffffffffffffffffffffffffff1681526020019081526020016000205461125891906130eb565b600c60003373ffffffffffffffffffffffffffffffffffffffff1673ffffffffffffffffffffffffffffffffffffffff168152602001908152602001600020819055505050565b6112b06112aa6115ce565b8361168f565b6112ef576040517f08c379a00000000000000000000000000000000000000000000000000000000081526004016112e690612dfd565b60405180910390fd5b6112fb84848484611cc2565b50505050565b606061130c82611d1e565b9050919050565b60085481565b6000600560008473ffffffffffffffffffffffffffffffffffffffff1673ffffffffffffffffffffffffffffffffffffffff16815260200190815260200160002060008373ffffffffffffffffffffffffffffffffffffffff1673ffffffffffffffffffffffffffffffffffffffff16815260200190815260200160002060009054906101000a900460ff16905092915050565b6000600c60008373ffffffffffffffffffffffffffffffffffffffff1673ffffffffffffffffffffffffffffffffffffffff168152602001908152602001600020549050919050565b6113fe6115ce565b73ffffffffffffffffffffffffffffffffffffffff1661141c610e43565b73ffffffffffffffffffffffffffffffffffffffff1614611472576040517f08c379a000000000000000000000000000000000000000000000000000000000815260040161146990612e69565b60405180910390fd5b600073ffffffffffffffffffffffffffffffffffffffff168173ffffffffffffffffffffffffffffffffffffffff1614156114e2576040517f08c379a00000000000000000000000000000000000000000000000000000000081526004016114d990613369565b60405180910390fd5b6114eb816119c9565b50565b6000600954905090565b60007f01ffc9a7000000000000000000000000000000000000000000000000000000007bffffffffffffffffffffffffffffffffffffffffffffffffffffffff1916827bffffffffffffffffffffffffffffffffffffffffffffffffffffffff1916149050919050565b60008073ffffffffffffffffffffffffffffffffffffffff166002600084815260200190815260200160002060009054906101000a900473ffffffffffffffffffffffffffffffffffffffff1673ffffffffffffffffffffffffffffffffffffffff1614159050919050565b600033905090565b816004600083815260200190815260200160002060006101000a81548173ffffffffffffffffffffffffffffffffffffffff021916908373ffffffffffffffffffffffffffffffffffffffff160217905550808273ffffffffffffffffffffffffffffffffffffffff1661164983610b1b565b73ffffffffffffffffffffffffffffffffffffffff167f8c5be1e5ebec7d5bd14f71427d1e84f3dd0314c0f7b2291e5b200ac8c7c3b92560405160405180910390a45050565b600061169a82611562565b6116d9576040517f08c379a00000000000000000000000000000000000000000000000000000000081526004016116d0906133fb565b60405180910390fd5b60006116e483610b1b565b90508073ffffffffffffffffffffffffffffffffffffffff168473ffffffffffffffffffffffffffffffffffffffff16148061175357508373ffffffffffffffffffffffffffffffffffffffff1661173b84610813565b73ffffffffffffffffffffffffffffffffffffffff16145b8061176457506117638185611319565b5b91505092915050565b8273ffffffffffffffffffffffffffffffffffffffff1661178d82610b1b565b73ffffffffffffffffffffffffffffffffffffffff16146117e3576040517f08c379a00000000000000000000000000000000000000000000000000000000081526004016117da9061348d565b60405180910390fd5b600073ffffffffffffffffffffffffffffffffffffffff168273ffffffffffffffffffffffffffffffffffffffff161415611853576040517f08c379a000000000000000000000000000000000000000000000000000000000815260040161184a9061351f565b60405180910390fd5b61185e838383611e70565b6118696000826115d6565b6001600360008573ffffffffffffffffffffffffffffffffffffffff1673ffffffffffffffffffffffffffffffffffffffff16815260200190815260200160002060008282546118b9919061353f565b925050819055506001600360008473ffffffffffffffffffffffffffffffffffffffff1673ffffffffffffffffffffffffffffffffffffffff168152602001908152602001600020600082825461191091906130eb565b92505081905550816002600083815260200190815260200160002060006101000a81548173ffffffffffffffffffffffffffffffffffffffff021916908373ffffffffffffffffffffffffffffffffffffffff160217905550808273ffffffffffffffffffffffffffffffffffffffff168473ffffffffffffffffffffffffffffffffffffffff167fddf252ad1be2c89b69c2b068fc378daa952ba7f163c4a11628f55a4df523b3ef60405160405180910390a4505050565b6000600760009054906101000a900473ffffffffffffffffffffffffffffffffffffffff16905081600760006101000a81548173ffffffffffffffffffffffffffffffffffffffff021916908373ffffffffffffffffffffffffffffffffffffffff1602179055508173ffffffffffffffffffffffffffffffffffffffff168173ffffffffffffffffffffffffffffffffffffffff167f8be0079c531659141344cd1fd0a4f28419497f9722a3daafe3b4186f6b6457e060405160405180910390a35050565b60006001611a9d600d611e75565b611aa791906130eb565b9050611ab3600d611e83565b611abd8282611e99565b611b5181600a8054611ace90612ba3565b80601f0160208091040260200160405190810160405280929190818152602001828054611afa90612ba3565b8015611b475780601f10611b1c57610100808354040283529160200191611b47565b820191906000526020600020905b815481529060010190602001808311611b2a57829003601f168201915b5050505050611eb7565b5050565b8173ffffffffffffffffffffffffffffffffffffffff168373ffffffffffffffffffffffffffffffffffffffff161415611bc4576040517f08c379a0000000000000000000000000000000000000000000000000000000008152600401611bbb906135bf565b60405180910390fd5b80600560008573ffffffffffffffffffffffffffffffffffffffff1673ffffffffffffffffffffffffffffffffffffffff16815260200190815260200160002060008473ffffffffffffffffffffffffffffffffffffffff1673ffffffffffffffffffffffffffffffffffffffff16815260200190815260200160002060006101000a81548160ff0219169083151502179055508173ffffffffffffffffffffffffffffffffffffffff168373ffffffffffffffffffffffffffffffffffffffff167f17307eab39ab6107e8899845ad3d59bd9653f200f220920489ca2b5937696c3183604051611cb59190612665565b60405180910390a3505050565b611ccd84848461176d565b611cd984848484611f2b565b611d18576040517f08c379a0000000000000000000000000000000000000000000000000000000008152600401611d0f90613651565b60405180910390fd5b50505050565b6060611d2982611562565b611d68576040517f08c379a0000000000000000000000000000000000000000000000000000000008152600401611d5f906136e3565b60405180910390fd5b6000600660008481526020019081526020016000208054611d8890612ba3565b80601f0160208091040260200160405190810160405280929190818152602001828054611db490612ba3565b8015611e015780601f10611dd657610100808354040283529160200191611e01565b820191906000526020600020905b815481529060010190602001808311611de457829003601f168201915b505050505090506000611e126120b3565b9050600081511415611e28578192505050611e6b565b600082511115611e5d578082604051602001611e4592919061373f565b60405160208183030381529060405292505050611e6b565b611e66846120ca565b925050505b919050565b505050565b600081600001549050919050565b6001816000016000828254019250508190555050565b611eb3828260405180602001604052806000815250612171565b5050565b611ec082611562565b611eff576040517f08c379a0000000000000000000000000000000000000000000000000000000008152600401611ef6906137d5565b60405180910390fd5b80600660008481526020019081526020016000209080519060200190611f2692919061250e565b505050565b6000611f4c8473ffffffffffffffffffffffffffffffffffffffff166121cc565b156120a6578373ffffffffffffffffffffffffffffffffffffffff1663150b7a02611f756115ce565b8786866040518563ffffffff1660e01b8152600401611f97949392919061384a565b6020604051808303816000875af1925050508015611fd357506040513d601f19601f82011682018060405250810190611fd091906138ab565b60015b612056573d8060008114612003576040519150601f19603f3d011682016040523d82523d6000602084013e612008565b606091505b5060008151141561204e576040517f08c379a000000000000000000000000000000000000000000000000000000000815260040161204590613651565b60405180910390fd5b805181602001fd5b63150b7a0260e01b7bffffffffffffffffffffffffffffffffffffffffffffffffffffffff1916817bffffffffffffffffffffffffffffffffffffffffffffffffffffffff1916149150506120ab565b600190505b949350505050565b606060405180602001604052806000815250905090565b60606120d582611562565b612114576040517f08c379a000000000000000000000000000000000000000000000000000000000815260040161210b9061394a565b60405180910390fd5b600061211e6120b3565b9050600081511161213e5760405180602001604052806000815250612169565b80612148846121df565b60405160200161215992919061373f565b6040516020818303038152906040525b915050919050565b61217b8383612340565b6121886000848484611f2b565b6121c7576040517f08c379a00000000000000000000000000000000000000000000000000000000081526004016121be90613651565b60405180910390fd5b505050565b600080823b905060008111915050919050565b60606000821415612227576040518060400160405280600181526020017f3000000000000000000000000000000000000000000000000000000000000000815250905061233b565b600082905060005b60008214612259578080612242906130a2565b915050600a826122529190613999565b915061222f565b60008167ffffffffffffffff81111561227557612274612986565b5b6040519080825280601f01601f1916602001820160405280156122a75781602001600182028036833780820191505090505b5090505b60008514612334576001826122c0919061353f565b9150600a856122cf91906139ca565b60306122db91906130eb565b60f81b8183815181106122f1576122f06139fb565b5b60200101907effffffffffffffffffffffffffffffffffffffffffffffffffffffffffffff1916908160001a905350600a8561232d9190613999565b94506122ab565b8093505050505b919050565b600073ffffffffffffffffffffffffffffffffffffffff168273ffffffffffffffffffffffffffffffffffffffff1614156123b0576040517f08c379a00000000000000000000000000000000000000000000000000000000081526004016123a790613a76565b60405180910390fd5b6123b981611562565b156123f9576040517f08c379a00000000000000000000000000000000000000000000000000000000081526004016123f090613ae2565b60405180910390fd5b61240560008383611e70565b6001600360008473ffffffffffffffffffffffffffffffffffffffff1673ffffffffffffffffffffffffffffffffffffffff168152602001908152602001600020600082825461245591906130eb565b92505081905550816002600083815260200190815260200160002060006101000a81548173ffffffffffffffffffffffffffffffffffffffff021916908373ffffffffffffffffffffffffffffffffffffffff160217905550808273ffffffffffffffffffffffffffffffffffffffff16600073ffffffffffffffffffffffffffffffffffffffff167fddf252ad1be2c89b69c2b068fc378daa952ba7f163c4a11628f55a4df523b3ef60405160405180910390a45050565b82805461251a90612ba3565b90600052602060002090601f01602090048101928261253c5760008555612583565b82601f1061255557805160ff1916838001178555612583565b82800160010185558215612583579182015b82811115612582578251825591602001919060010190612567565b5b5090506125909190612594565b5090565b5b808211156125ad576000816000905550600101612595565b5090565b6000604051905090565b600080fd5b600080fd5b60007fffffffff0000000000000000000000000000000000000000000000000000000082169050919050565b6125fa816125c5565b811461260557600080fd5b50565b600081359050612617816125f1565b92915050565b600060208284031215612633576126326125bb565b5b600061264184828501612608565b91505092915050565b60008115159050919050565b61265f8161264a565b82525050565b600060208201905061267a6000830184612656565b92915050565b600081519050919050565b600082825260208201905092915050565b60005b838110156126ba57808201518184015260208101905061269f565b838111156126c9576000848401525b50505050565b6000601f19601f8301169050919050565b60006126eb82612680565b6126f5818561268b565b935061270581856020860161269c565b61270e816126cf565b840191505092915050565b6000602082019050818103600083015261273381846126e0565b905092915050565b6000819050919050565b61274e8161273b565b811461275957600080fd5b50565b60008135905061276b81612745565b92915050565b600060208284031215612787576127866125bb565b5b60006127958482850161275c565b91505092915050565b600073ffffffffffffffffffffffffffffffffffffffff82169050919050565b60006127c98261279e565b9050919050565b6127d9816127be565b82525050565b60006020820190506127f460008301846127d0565b92915050565b612803816127be565b811461280e57600080fd5b50565b600081359050612820816127fa565b92915050565b6000806040838503121561283d5761283c6125bb565b5b600061284b85828601612811565b925050602061285c8582860161275c565b9150509250929050565b61286f8161273b565b82525050565b600060208201905061288a6000830184612866565b92915050565b6000806000606084860312156128a9576128a86125bb565b5b60006128b786828701612811565b93505060206128c886828701612811565b92505060406128d98682870161275c565b9150509250925092565b6000602082840312156128f9576128f86125bb565b5b600061290784828501612811565b91505092915050565b6129198161264a565b811461292457600080fd5b50565b60008135905061293681612910565b92915050565b60008060408385031215612953576129526125bb565b5b600061296185828601612811565b925050602061297285828601612927565b9150509250929050565b600080fd5b600080fd5b7f4e487b7100000000000000000000000000000000000000000000000000000000600052604160045260246000fd5b6129be826126cf565b810181811067ffffffffffffffff821117156129dd576129dc612986565b5b80604052505050565b60006129f06125b1565b90506129fc82826129b5565b919050565b600067ffffffffffffffff821115612a1c57612a1b612986565b5b612a25826126cf565b9050602081019050919050565b82818337600083830152505050565b6000612a54612a4f84612a01565b6129e6565b905082815260208101848484011115612a7057612a6f612981565b5b612a7b848285612a32565b509392505050565b600082601f830112612a9857612a9761297c565b5b8135612aa8848260208601612a41565b91505092915050565b60008060008060808587031215612acb57612aca6125bb565b5b6000612ad987828801612811565b9450506020612aea87828801612811565b9350506040612afb8782880161275c565b925050606085013567ffffffffffffffff811115612b1c57612b1b6125c0565b5b612b2887828801612a83565b91505092959194509250565b60008060408385031215612b4b57612b4a6125bb565b5b6000612b5985828601612811565b9250506020612b6a85828601612811565b9150509250929050565b7f4e487b7100000000000000000000000000000000000000000000000000000000600052602260045260246000fd5b60006002820490506001821680612bbb57607f821691505b60208210811415612bcf57612bce612b74565b5b50919050565b7f4552433732313a20617070726f76656420717565727920666f72206e6f6e657860008201527f697374656e7420746f6b656e0000000000000000000000000000000000000000602082015250565b6000612c31602c8361268b565b9150612c3c82612bd5565b604082019050919050565b60006020820190508181036000830152612c6081612c24565b9050919050565b7f4552433732313a20617070726f76616c20746f2063757272656e74206f776e6560008201527f7200000000000000000000000000000000000000000000000000000000000000602082015250565b6000612cc360218361268b565b9150612cce82612c67565b604082019050919050565b60006020820190508181036000830152612cf281612cb6565b9050919050565b7f4552433732313a20617070726f76652063616c6c6572206973206e6f74206f7760008201527f6e6572206e6f7220617070726f76656420666f7220616c6c0000000000000000602082015250565b6000612d5560388361268b565b9150612d6082612cf9565b604082019050919050565b60006020820190508181036000830152612d8481612d48565b9050919050565b7f4552433732313a207472616e736665722063616c6c6572206973206e6f74206f60008201527f776e6572206e6f7220617070726f766564000000000000000000000000000000602082015250565b6000612de760318361268b565b9150612df282612d8b565b604082019050919050565b60006020820190508181036000830152612e1681612dda565b9050919050565b7f4f776e61626c653a2063616c6c6572206973206e6f7420746865206f776e6572600082015250565b6000612e5360208361268b565b9150612e5e82612e1d565b602082019050919050565b60006020820190508181036000830152612e8281612e46565b9050919050565b7f4552433732313a206f776e657220717565727920666f72206e6f6e657869737460008201527f656e7420746f6b656e0000000000000000000000000000000000000000000000602082015250565b6000612ee560298361268b565b9150612ef082612e89565b604082019050919050565b60006020820190508181036000830152612f1481612ed8565b9050919050565b7f4552433732313a2062616c616e636520717565727920666f7220746865207a6560008201527f726f206164647265737300000000000000000000000000000000000000000000602082015250565b6000612f77602a8361268b565b9150612f8282612f1b565b604082019050919050565b60006020820190508181036000830152612fa681612f6a565b9050919050565b7f4e487b7100000000000000000000000000000000000000000000000000000000600052601160045260246000fd5b6000612fe78261273b565b9150612ff28361273b565b9250817fffffffffffffffffffffffffffffffffffffffffffffffffffffffffffffffff048311821515161561302b5761302a612fad565b5b828202905092915050565b7f4e6f7420656e6f756768204574686572207761732073656e7400000000000000600082015250565b600061306c60198361268b565b915061307782613036565b602082019050919050565b6000602082019050818103600083015261309b8161305f565b9050919050565b60006130ad8261273b565b91507fffffffffffffffffffffffffffffffffffffffffffffffffffffffffffffffff8214156130e0576130df612fad565b5b600182019050919050565b60006130f68261273b565b91506131018361273b565b9250827fffffffffffffffffffffffffffffffffffffffffffffffffffffffffffffffff0382111561313657613135612fad565b5b828201905092915050565b7f5468652047616d6520686173206e6f7420626567756e00000000000000000000600082015250565b600061317760168361268b565b915061318282613141565b602082019050919050565b600060208201905081810360008301526131a68161316a565b9050919050565b7f57652072656163686564206f757220746563686e6f6c6f676963616c206c696d60008201527f69742e204d696e74206c657373206c6f737365732c206f722061736b20616e6f60208201527f74686572204c6f73657220746f2073656e6420796f75206f6e652e0000000000604082015250565b600061322f605b8361268b565b915061323a826131ad565b606082019050919050565b6000602082019050818103600083015261325e81613222565b9050919050565b7f536f72727920667269656e642c2073656e642074686520657861637420616d6f60008201527f756e74206f662045746865722072657175697265640000000000000000000000602082015250565b60006132c160358361268b565b91506132cc82613265565b604082019050919050565b600060208201905081810360008301526132f0816132b4565b9050919050565b7f4f776e61626c653a206e6577206f776e657220697320746865207a65726f206160008201527f6464726573730000000000000000000000000000000000000000000000000000602082015250565b600061335360268361268b565b915061335e826132f7565b604082019050919050565b6000602082019050818103600083015261338281613346565b9050919050565b7f4552433732313a206f70657261746f7220717565727920666f72206e6f6e657860008201527f697374656e7420746f6b656e0000000000000000000000000000000000000000602082015250565b60006133e5602c8361268b565b91506133f082613389565b604082019050919050565b60006020820190508181036000830152613414816133d8565b9050919050565b7f4552433732313a207472616e73666572206f6620746f6b656e2074686174206960008201527f73206e6f74206f776e0000000000000000000000000000000000000000000000602082015250565b600061347760298361268b565b91506134828261341b565b604082019050919050565b600060208201905081810360008301526134a68161346a565b9050919050565b7f4552433732313a207472616e7366657220746f20746865207a65726f2061646460008201527f7265737300000000000000000000000000000000000000000000000000000000602082015250565b600061350960248361268b565b9150613514826134ad565b604082019050919050565b60006020820190508181036000830152613538816134fc565b9050919050565b600061354a8261273b565b91506135558361273b565b92508282101561356857613567612fad565b5b828203905092915050565b7f4552433732313a20617070726f766520746f2063616c6c657200000000000000600082015250565b60006135a960198361268b565b91506135b482613573565b602082019050919050565b600060208201905081810360008301526135d88161359c565b9050919050565b7f4552433732313a207472616e7366657220746f206e6f6e20455243373231526560008201527f63656976657220696d706c656d656e7465720000000000000000000000000000602082015250565b600061363b60328361268b565b9150613646826135df565b604082019050919050565b6000602082019050818103600083015261366a8161362e565b9050919050565b7f45524337323155524953746f726167653a2055524920717565727920666f722060008201527f6e6f6e6578697374656e7420746f6b656e000000000000000000000000000000602082015250565b60006136cd60318361268b565b91506136d882613671565b604082019050919050565b600060208201905081810360008301526136fc816136c0565b9050919050565b600081905092915050565b600061371982612680565b6137238185613703565b935061373381856020860161269c565b80840191505092915050565b600061374b828561370e565b9150613757828461370e565b91508190509392505050565b7f45524337323155524953746f726167653a2055524920736574206f66206e6f6e60008201527f6578697374656e7420746f6b656e000000000000000000000000000000000000602082015250565b60006137bf602e8361268b565b91506137ca82613763565b604082019050919050565b600060208201905081810360008301526137ee816137b2565b9050919050565b600081519050919050565b600082825260208201905092915050565b600061381c826137f5565b6138268185613800565b935061383681856020860161269c565b61383f816126cf565b840191505092915050565b600060808201905061385f60008301876127d0565b61386c60208301866127d0565b6138796040830185612866565b818103606083015261388b8184613811565b905095945050505050565b6000815190506138a5816125f1565b92915050565b6000602082840312156138c1576138c06125bb565b5b60006138cf84828501613896565b91505092915050565b7f4552433732314d657461646174613a2055524920717565727920666f72206e6f60008201527f6e6578697374656e7420746f6b656e0000000000000000000000000000000000602082015250565b6000613934602f8361268b565b915061393f826138d8565b604082019050919050565b6000602082019050818103600083015261396381613927565b9050919050565b7f4e487b7100000000000000000000000000000000000000000000000000000000600052601260045260246000fd5b60006139a48261273b565b91506139af8361273b565b9250826139bf576139be61396a565b5b828204905092915050565b60006139d58261273b565b91506139e08361273b565b9250826139f0576139ef61396a565b5b828206905092915050565b7f4e487b7100000000000000000000000000000000000000000000000000000000600052603260045260246000fd5b7f4552433732313a206d696e7420746f20746865207a65726f2061646472657373600082015250565b6000613a6060208361268b565b9150613a6b82613a2a565b602082019050919050565b60006020820190508181036000830152613a8f81613a53565b9050919050565b7f4552433732313a20746f6b656e20616c7265616479206d696e74656400000000600082015250565b6000613acc601c8361268b565b9150613ad782613a96565b602082019050919050565b60006020820190508181036000830152613afb81613abf565b905091905056fea2646970667358221220a5235a9ed24bd955a0562a57360025e59243d4ac6966d91daf2a9159fc994cfa64736f6c634300080b003368747470733a2f2f6261666b726569676d333374767762643374366c656437746c746235666636377a7662686f6669686a3761786966746f35663766666e736d67686d2e697066732e647765622e6c696e6b2f",
  "immutableReferences": {},
  "source": "// SPDX-License-Identifier: MIT\npragma solidity 0.8.11;\n\nimport \"@openzeppelin/contracts/token/ERC721/ERC721.sol\";\nimport \"@openzeppelin/contracts/token/ERC721/extensions/ERC721URIStorage.sol\";\nimport \"@openzeppelin/contracts/access/Ownable.sol\";\nimport \"@openzeppelin/contracts/utils/Counters.sol\";\n\n\n/// @title The Game\n/// @author rubrixks.eth\n/// @notice Will only be available on testnets until deployed on a L2 scaling solution\n/// @dev All function calls are currently implemented without side effects\n/// @custom:experimental This is an experimental contract.\ncontract TheGame is ERC721,ERC721URIStorage, Ownable {\n\n  bool public gameStarts = false;\n  uint public maxSupply = 2**256-1;\n  uint public mintedLosses = 0;\n  string public baseURI = \"https://bafkreigm33tvwbd3t6led7tltb5ff67zvbhofihj7axifto5f7ffnsmghm.ipfs.dweb.link/\";\n  uint public lossBasePrice = .0001 ether;\n  mapping (address=>uint) lossTracker;\n  using Counters for Counters.Counter;\n    Counters.Counter private _tokenIdCounter;\n  \n  function getMaxSupply() public view returns (uint) {\n    return maxSupply;\n  }\n  function getMintedLosses() public view returns (uint) {\n    return mintedLosses;\n  }\n  function getLossBasePrice() public view returns (uint) {\n    return lossBasePrice;\n  }\n\n  constructor() ERC721(\"TheGame\", \"DTAI\") {\n  }\n  ///Needs to only allow owner to call\n\n  /// @notice Allows creator to mint the first 100 losses\n  /// @dev Only the owner can call this function\n  function firstLoser() payable public onlyOwner  {\n    beginTheGame();\n    uint8 creationLosses= 10;\n    require(msg.value == lossBasePrice * creationLosses,\"Not enough Ether was sent\");\n      for (uint i = 0; i < creationLosses; i++) {\n        safeMint(msg.sender);\n      }\n      mintedLosses = mintedLosses + creationLosses;\n      lossTracker[msg.sender] = lossTracker[msg.sender] + creationLosses;\n  }\n    ///Needs to HandOutLs after owner is given first 100 Ls;\n    /// notice Anyone who has thought about the game can mint as many Losses as they have thought of \n    /// dev Keeps track of how many Losses have been minted \n    /// param address wanting to mint and amount of losses wanted on the address\n  function mintLosses(address to, uint amountOfLosses) payable public {\n    require(gameStarts == true,\"The Game has not begun\");\n    require(mintedLosses + amountOfLosses <= maxSupply,\"We reached our technological limit. Mint less losses, or ask another Loser to send you one.\");\n    require(msg.value == lossBasePrice * amountOfLosses,\"Sorry friend, send the exact amount of Ether required\");\n        for (uint i = 0; i < amountOfLosses; i++) {\n      safeMint(to);\n      }\n    mintedLosses = mintedLosses + amountOfLosses;\n    lossTracker[msg.sender] = lossTracker[msg.sender] + amountOfLosses;\n  }\n  /// notice Calculate tree age in years, rounded up, for live trees\n    /// dev safely mints NFT\n    /// param to is the address of the address wanting to mint NFT\n  function safeMint(address to) internal {\n    uint tokenId = _tokenIdCounter.current()+1;\n    _tokenIdCounter.increment();\n    _safeMint(to, tokenId);\n    _setTokenURI(tokenId, baseURI);\n  }\n  function _burn(uint256 tokenId) internal override(ERC721, ERC721URIStorage) {\n    super._burn(tokenId);\n  }\n    /// notice Returns JSON file of the The Game\n    /// dev Must return baseURI for all tokenURI requests\n    /// param tokenId is what makes the token nonfungible, it keeps track of when the NFT want minted\n    /// return URI\n  function tokenURI(uint256 tokenId) public view override(ERC721, ERC721URIStorage) returns (string memory) {\n    return super.tokenURI(tokenId);\n  }\n    /// notice Returns who the amount of Losses on in one address\n    /// dev must return baseURI for all tokenURI requests\n    /// param ad is the address that tracks how many times the account has minted or has been transferred losses\n    /// returns a number\n  function lossFinder(address ad) public view returns(uint) {\n    return lossTracker[ad];\n  }\n\n    //notice: transfer ether in contract to owner of the contract\n    //dev: only the owner can call this function\n  function withdraw() payable public onlyOwner {\n    uint amount = address(this).balance;\n    payable(msg.sender).transfer(amount);\n  }\n    //notice:begins the game so anyone can call TheGame contract\n    //dev:function is called in the constructor\n    //\n  function beginTheGame() public onlyOwner {\n    gameStarts = !gameStarts;\n  }\n}\n",
  "sourcePath": "/Users/rubengarcia/blockchain-developer-bootcamp-final-project/Backend/contracts/TheGame.sol",
  "compiler": {
    "name": "solc",
    "version": "0.8.11+commit.d7f03943.Emscripten.clang"
  },
  "schemaVersion": "3.4.3",
  "updatedAt": "2022-01-15T20:32:18.045Z",
  "networkType": "ethereum",
  "devdoc": {
    "author": "rubrixks.eth",
    "custom:experimental": "This is an experimental contract.",
    "details": "All function calls are currently implemented without side effects",
    "kind": "dev",
    "methods": {
      "approve(address,uint256)": {
        "details": "See {IERC721-approve}."
      },
      "balanceOf(address)": {
        "details": "See {IERC721-balanceOf}."
      },
      "firstLoser()": {
        "details": "Only the owner can call this function"
      },
      "getApproved(uint256)": {
        "details": "See {IERC721-getApproved}."
      },
      "isApprovedForAll(address,address)": {
        "details": "See {IERC721-isApprovedForAll}."
      },
      "name()": {
        "details": "See {IERC721Metadata-name}."
      },
      "owner()": {
        "details": "Returns the address of the current owner."
      },
      "ownerOf(uint256)": {
        "details": "See {IERC721-ownerOf}."
      },
      "renounceOwnership()": {
        "details": "Leaves the contract without owner. It will not be possible to call `onlyOwner` functions anymore. Can only be called by the current owner. NOTE: Renouncing ownership will leave the contract without an owner, thereby removing any functionality that is only available to the owner."
      },
      "safeTransferFrom(address,address,uint256)": {
        "details": "See {IERC721-safeTransferFrom}."
      },
      "safeTransferFrom(address,address,uint256,bytes)": {
        "details": "See {IERC721-safeTransferFrom}."
      },
      "setApprovalForAll(address,bool)": {
        "details": "See {IERC721-setApprovalForAll}."
      },
      "supportsInterface(bytes4)": {
        "details": "See {IERC165-supportsInterface}."
      },
      "symbol()": {
        "details": "See {IERC721Metadata-symbol}."
      },
      "transferFrom(address,address,uint256)": {
        "details": "See {IERC721-transferFrom}."
      },
      "transferOwnership(address)": {
        "details": "Transfers ownership of the contract to a new account (`newOwner`). Can only be called by the current owner."
      }
    },
    "title": "The Game",
    "version": 1
  },
  "userdoc": {
    "kind": "user",
    "methods": {
      "firstLoser()": {
        "notice": "Allows creator to mint the first 100 losses"
      },
      "lossFinder(address)": {
        "notice": "notice Returns who the amount of Losses on in one address dev must return baseURI for all tokenURI requests param ad is the address that tracks how many times the account has minted or has been transferred losses returns a number"
      },
      "mintLosses(address,uint256)": {
        "notice": "Needs to HandOutLs after owner is given first 100 Ls; notice Anyone who has thought about the game can mint as many Losses as they have thought of  dev Keeps track of how many Losses have been minted  param address wanting to mint and amount of losses wanted on the address"
      },
      "tokenURI(uint256)": {
        "notice": "notice Returns JSON file of the The Game dev Must return baseURI for all tokenURI requests param tokenId is what makes the token nonfungible, it keeps track of when the NFT want minted return URI"
      }
    },
    "notice": "Will only be available on testnets until deployed on a L2 scaling solution",
    "version": 1
  }
}